{
  "contractName": "FractalToken",
  "abi": [
    {
      "constant": true,
      "inputs": [],
      "name": "fractal_id",
      "outputs": [
        {
          "internalType": "uint256",
          "name": "",
          "type": "uint256"
        }
      ],
      "payable": false,
      "stateMutability": "view",
      "type": "function"
    },
    {
      "constant": true,
      "inputs": [],
      "name": "getFractalId",
      "outputs": [
        {
          "internalType": "uint256",
          "name": "",
          "type": "uint256"
        }
      ],
      "payable": false,
      "stateMutability": "view",
      "type": "function"
    },
    {
      "constant": false,
      "inputs": [
        {
          "internalType": "uint256",
          "name": "id",
          "type": "uint256"
        }
      ],
      "name": "setFractalId",
      "outputs": [],
      "payable": false,
      "stateMutability": "nonpayable",
      "type": "function"
    }
  ],
  "bytecode": "0x608060405234801561001057600080fd5b5060f28061001f6000396000f3fe6080604052348015600f57600080fd5b5060043610603c5760003560e01c80632b7563aa146041578063c475b3fe14605d578063f53c23f0146088575b600080fd5b604760a4565b6040518082815260200191505060405180910390f35b608660048036036020811015607157600080fd5b810190808035906020019092919050505060ad565b005b608e60b7565b6040518082815260200191505060405180910390f35b60008054905090565b8060008190555050565b6000548156fea265627a7a7231582026113eb77c5325ff08ca9b9a7074d0aa924456a4f40ccecad9d53cfa7658b56164736f6c63430005100032",
  "source": "pragma solidity >=0.4.22 <0.9.0;\r\n\r\ncontract FractalToken {\r\n  uint public fractal_id;\r\n\r\n  function getFractalId() external view returns (uint){\r\n    return fractal_id;\r\n  }\r\n\r\n  function setFractalId(uint id) public {\r\n    fractal_id = id;\r\n  }\r\n}\r\n",
  "sourcePath": "C:/Users/prica/Desktop/fractal-nft/fractal-nft/src/app/ethereum/contracts/FractalToken.sol",
  "compiler": {
    "name": "solc",
    "version": "0.5.16+commit.9c3226ce.Emscripten.clang"
  },
  "schemaVersion": "3.3.4",
  "updatedAt": "2021-02-21T14:23:51.768Z",
  "networkType": "ethereum",
  "devdoc": {
    "methods": {}
  },
  "userdoc": {
    "methods": {}
  }
}